S00F000050726F6A6563742E737265633E
S113000045C0000060C000005EC000005CC000008D
S11300105AC0000058C0000056C0000054C0000080
S113002052C0000050C000004EC000004CC0000090
S11300304AC000006DC0000046C0000044C000007B
S113004042C0000040C000003EC000003CC00000B0
S11300503AC0000038C0000036C0000034C00000C0
S113006032C0000030C000002EC000002CC00000D0
S11300702AC0000028C0000026C0000024C00000E0
S113008022C0000020C000001EC0000011241FBEBA
S1130090CFEFD0E4DEBFCDBF11E0A0E0B1E0E4EAF1
S11300A0FBE000E00BBF02C007900D92AA31B1073C
S11300B0D9F721E0AAE1B1E001C01D92A432B20750
S11300C0E1F73AD46DC59CCF8BE0809381008DE736
S11300D090E0909389008093880082E080936F0081
S11300E01092850010928400809104019091050182
S11300F0A0910601B091070180931A0190931B010E
S1130100A0931C01B0931D018FB780688FBF089521
S11301101F920F920FB60F9211248F939F93AF9358
S1130120BF9380911A0190911B01A0911C01B09181
S11301301D010197A109B10980931A0190931B0134
S1130140A0931C01B0931D01892B8A2B8B2B99F44E
S113015081E0809321018091040190910501A09197
S11301600601B091070180931A0190931B01A0939B
S11301701C01B0931D01BF91AF919F918F910F907E
S11301800FBE0F901F9018956093040170930501A2
S1130190809306019093070160931A0170931B01E9
S11301A080931C0190931D010895CF93DF931092C7
S11301B020018BD483709078992324F401978C6F59
S11301C09F6F0196EC0181D483709078992324F475
S11301D001978C6F9F6F01968C0F9D1FE0E1F1E0FA
S11301E020E030E011922F5F3F4FC217D307D0F7C2
S11301F0E8E0F1E020E030E011922F5F3F4F8217FA
S11302009307D0F7DF91CF910895CF93C82F8F3FF5
S113021061F418B888E090E039E02CE038B928B9E6
S11302200197E1F78AE088B91DC0809123018230EB
S113023019F48FEF47D004C0811102C08FEF14D09E
S113024081E08093230118B828E030E09CE08C2FF3
S11302508170886088B998B9C69521503109B9F779
S11302608AE088B9CF910895CF93C82F8F3F61F466
S113027015B888E090E039E02CE035B925B901974C
S1130280E1F78AE085B91CC080912301823019F41A
S11302908FEF18D004C0813011F48FEFB6DF1092C5
S11302A0230115B828E030E09CE08C2F8170886031
S11302B085B995B9C69521503109B9F78AE085B950
S11302C0CF910895CF93C82F81E082B9CF3F61F4D5
S11302D012B888E090E039E02CE032B922B90197F5
S11302E0E1F78AE082B91DC080912301813019F4BD
S11302F08FEF8BDF04C0811102C08FEFB5DF82E086
S11303008093230112B828E030E09CE08C2F8170A8
S1130310886082B992B9C69521503109B9F78AE04B
S113032082B9CF9108959091100190958091080120
S11303308095282F52F406C09C91909580818095D9
S1130340282F52F4109222010895E8E0F1E0A0E190
S1130350B1E040E151E030E0692F682331F0892FAA
S113036080958223209592233F5F9695282F2923F9
S113037039F0282F692F60958623209592233F5FBB
S1130380880F8095819390959D93E417F507A1F6C6
S1130390330F330F330F3A6038B98091210188232A
S11303A0E1F3109221018AE088B908958ED3877011
S11303B09078992324F40197886F9F6F0196482FB2
S11303C0282F30E0F901E85FFE4F9081909591FD70
S11303D006C0F901E85FFE4F9160909590838F5FAE
S11303E0481770F7089571D367E070E000D3282FA1
S11303F08F5F821790F0422F50E0FA01E85FFE4FC2
S11304009081909591FD06C0FA01E85FFE4F9160DE
S1130410909590832F5F821770F7089580911F0144
S1130420882321F08093200110921F010895809168
S11304301E01882309F46CC08091200180958130CD
S113044059F48091100180958F3F09F480E0806415
S11304508095809310015AC0823059F48091110123
S113046080958F3F09F480E080648095809311012A
S11304704DC0843059F48091120180958F3F09F466
S113048080E0806480958093120140C0883059F4E4
S11304908091130180958F3F09F480E080648095FA
S11304A08093130133C0803159F4809114018095F5
S11304B08F3F09F480E0806480958093140126C006
S11304C0803259F48091150180958F3F09F480E0C2
S11304D0806480958093150119C0803459F480910B
S11304E0160180958F3F09F480E0806480958093A5
S11304F016010CC0803851F48091170180958F3F0C
S113050009F480E0806480958093170110921E01A5
S113051008954F925F926F927F928F929F92AF92C3
S1130520BF92CF92DF92EF92FF920F931F93CF93DC
S1130530DF9380E18BB980912001C4DE8091210199
S11305408823E1F3109221010F2EF0E1CF2EF1E088
S1130550DF2EF02DE12CF12C02E010E0689444240D
S113056043F8AA24A394B12C6894552452F86894AF
S1130570662461F8772473946894882487F86894CF
S1130580992496F8D0E2F601C1916F01C09509F45F
S11305908CC0C6FF12C0DBB9C5010E2C02C0880F87
S11305A0991F0A94E2F7809530DE80912101882317
S11305B0E1F3109221010E5F1F4FC5FF12C09BB8DB
S11305C0C5010E2C02C0880F991F0A94E2F780958A
S11305D01CDE809121018823E1F3109221010E5F3A
S11305E01F4FC4FF12C08BB8C5010E2C02C0880F68
S11305F0991F0A94E2F7809508DE809121018823EF
S1130600E1F3109221010E5F1F4FC3FF12C07BB8AC
S1130610C5010E2C02C0880F991F0A94E2F7809539
S1130620F4DD809121018823E1F3109221010E5F12
S11306301F4FC2FF12C06BB8C5010E2C02C0880F39
S1130640991F0A94E2F78095E0DD809121018823C7
S1130650E1F3109221010E5F1F4FC1FF12C05BB87E
S1130660C5010E2C02C0880F991F0A94E2F78095E9
S1130670CCDD809121018823E1F3109221010E5FEA
S11306801F4FC0FF12C04BB8C5010E2C02C0880F0B
S1130690991F0A94E2F78095B8DD8091210188239F
S11306A0E1F3109221010E5F1F4FFFEFEF1AFF0AD3
S11306B088E0E816F10409F066CF0F2EF8E0CF2E9B
S11306C0F1E0DF2EF02DE12CF12C6894442443F862
S11306D0AA24A394B12C6894552452F868946624EF
S11306E061F8772473946894882487F8689499242B
S11306F096F8D0E2F601C1916F01C09509F48CC05F
S1130700C6FF12C0DBB9C5010E2C02C0880F991FA9
S11307100A94E2F78095A8DD809121018823E1F312
S1130720109221010E5F1F4FC5FF12C09BB8C50177
S11307300E2C02C0880F991F0A94E2F7809594DD6D
S1130740809121018823E1F3109221010E5F1F4F54
S1130750C4FF12C08BB8C5010E2C02C0880F991FAC
S11307600A94E2F7809580DD809121018823E1F3EA
S1130770109221010E5F1F4FC3FF12C07BB8C50149
S11307800E2C02C0880F991F0A94E2F780956CDD45
S1130790809121018823E1F3109221010E5F1F4F04
S11307A0C2FF12C06BB8C5010E2C02C0880F991F7E
S11307B00A94E2F7809558DD809121018823E1F3C2
S11307C0109221010E5F1F4FC1FF12C05BB8C5011B
S11307D00E2C02C0880F991F0A94E2F7809544DD1D
S11307E0809121018823E1F3109221010E5F1F4FB4
S11307F0C0FF12C04BB8C5010E2C02C0880F991F50
S11308000A94E2F7809530DD809121018823E1F399
S1130810109221010E5F1F4FFFEFEF1AFF0A88E0CD
S1130820E816F10409F066CFC801DF91CF911F915A
S11308300F91FF90EF90DF90CF90BF90AF909F907B
S11308408F907F906F905F904F9008958FE7809383
S1130850200110921F0110921E01E0E1F1E0A8E0D6
S1130860B1E028E131E08FEF81938D93E217F30734
S1130870D9F781E08093220183E0809323018FEFF5
S1130880C4DC8FEF1FDD8FEFEFDC8AEF88B984E1E2
S113089095E0909319018093180108958AEE82B926
S11308A08AEC82B980E090E020E04AEC3AED42B96B
S11308B0069906C02F5F082E01C0220F0A94EAF79A
S11308C032B901968830910591F7283011F4BECFE2
S11308D00895213021F481E080931E0128C01092F4
S11308E01E01203189F4809120018095880F19F030
S11308F080931F0103C080E880931F0180911F0132
S1130900809580931F010895203289F480912001FD
S11309108095869519F080931F0103C081E0809330
S11309201F0180911F01809580931F01089580917C
S1130930200180931F0108958FEF87B918B884B9F7
S113094015B88AB98DED8BB98FE381B980EC82B982
S113095084E090E0BDD081E08093220183E0809325
S1130960230162E070E080E090E00EDCADDB8FEF0D
S11309704CDC8FEFA7DC8FEF77DC00E010E0C0E009
S1130980D0E003C08BDF11DCC4DD80912201882319
S1130990C9F38091180190911901C817D907CCF0B7
S11309A0893E934014F41FDD01C000DDBCDC80915E
S11309B0180190911901893E23E0920744F00597AC
S11309C09093190180931801C0E0D0E002C0C0E008
S11309D0D0E0043611052CF061DF29DD1FDD00E0D5
S11309E010E097DDC80FD91F080F191FCECF97FB52
S11309F0072E16F4009406D077FD08D00BD007FC20
S1130A0005D03EF4909581959F4F0895709561951A
S1130A107F4F0895AA1BBB1B51E107C0AA1FBB1F30
S1130A20A617B70710F0A61BB70B881F991F5A9576
S1130A30A9F780959095BC01CD0108958F929F925E
S1130A40AF92BF92CF92DF92EF92FF92CF93DF9358
S1130A50EC01688179818A819B8161157105810529
S1130A60910521F464E279ED8BE597E02DE133EF14
S1130A7041E050E038D049015A019B01AC01A7EA9A
S1130A80B1E44DD06B017C01ACEEB4EFA50194014F
S1130A9052D0DC01CB018C0D9D1DAE1DBF1DB7FFD7
S1130AA003C00197A109B04888839983AA83BB83B3
S1130AB09F77DF91CF91FF90EF90DF90CF90BF9021
S1130AC0AF909F908F900895B9CF80E091E0B6CF1A
S1130AD0A0E0B0E08093000190930101A093020193
S1130AE0B09303010895052E97FB16F400940FD0DC
S1130AF057FD05D024D007FC02D046F408C0509519
S1130B004095309521953F4F4F4F5F4F08959095F5
S1130B108095709561957F4F8F4F9F4F089531D089
S1130B20A59F900DB49F900DA49F800D911D11243D
S1130B300895B7FFF4CFF3DF821B930B0895A1E26E
S1130B401A2EAA1BBB1BFD010DC0AA1FBB1FEE1F43
S1130B50FF1FA217B307E407F50720F0A21BB30B8E
S1130B60E40BF50B661F771F881F991F1A9469F70A
S1130B7060957095809590959B01AC01BD01CF0166
S1130B800895A29FB001B39FC001A39F700D811D62
S1130B901124911DB29F700D811D1124911D089582
S1070BA0F894FFCFF3
S1130BA40100000001000000FF000000000000003C
S10D0BB4FF00000000000000DC0553
S9030000FC
